{
  "_format": "hh-sol-artifact-1",
  "contractName": "TokenFactory",
  "sourceName": "contracts/TokenFactory.sol",
  "abi": [
    {
      "inputs": [
        {
          "internalType": "address",
          "name": "defaultAdmin",
          "type": "address"
        },
        {
          "internalType": "address",
          "name": "tokenImpl",
          "type": "address"
        }
      ],
      "stateMutability": "nonpayable",
      "type": "constructor"
    },
    {
      "inputs": [],
      "name": "AccessControlBadConfirmation",
      "type": "error"
    },
    {
      "inputs": [
        {
          "internalType": "address",
          "name": "account",
          "type": "address"
        },
        {
          "internalType": "bytes32",
          "name": "neededRole",
          "type": "bytes32"
        }
      ],
      "name": "AccessControlUnauthorizedAccount",
      "type": "error"
    },
    {
      "anonymous": false,
      "inputs": [
        {
          "indexed": true,
          "internalType": "bytes32",
          "name": "role",
          "type": "bytes32"
        },
        {
          "indexed": true,
          "internalType": "bytes32",
          "name": "previousAdminRole",
          "type": "bytes32"
        },
        {
          "indexed": true,
          "internalType": "bytes32",
          "name": "newAdminRole",
          "type": "bytes32"
        }
      ],
      "name": "RoleAdminChanged",
      "type": "event"
    },
    {
      "anonymous": false,
      "inputs": [
        {
          "indexed": true,
          "internalType": "bytes32",
          "name": "role",
          "type": "bytes32"
        },
        {
          "indexed": true,
          "internalType": "address",
          "name": "account",
          "type": "address"
        },
        {
          "indexed": true,
          "internalType": "address",
          "name": "sender",
          "type": "address"
        }
      ],
      "name": "RoleGranted",
      "type": "event"
    },
    {
      "anonymous": false,
      "inputs": [
        {
          "indexed": true,
          "internalType": "bytes32",
          "name": "role",
          "type": "bytes32"
        },
        {
          "indexed": true,
          "internalType": "address",
          "name": "account",
          "type": "address"
        },
        {
          "indexed": true,
          "internalType": "address",
          "name": "sender",
          "type": "address"
        }
      ],
      "name": "RoleRevoked",
      "type": "event"
    },
    {
      "anonymous": false,
      "inputs": [
        {
          "indexed": false,
          "internalType": "address",
          "name": "token",
          "type": "address"
        }
      ],
      "name": "TokenCreated",
      "type": "event"
    },
    {
      "inputs": [],
      "name": "DEFAULT_ADMIN_ROLE",
      "outputs": [
        {
          "internalType": "bytes32",
          "name": "",
          "type": "bytes32"
        }
      ],
      "stateMutability": "view",
      "type": "function"
    },
    {
      "inputs": [],
      "name": "beaconAddress",
      "outputs": [
        {
          "internalType": "address",
          "name": "",
          "type": "address"
        }
      ],
      "stateMutability": "view",
      "type": "function"
    },
    {
      "inputs": [
        {
          "internalType": "address",
          "name": "admin",
          "type": "address"
        },
        {
          "internalType": "string",
          "name": "name",
          "type": "string"
        },
        {
          "internalType": "string",
          "name": "ticker",
          "type": "string"
        },
        {
          "internalType": "uint256",
          "name": "premint",
          "type": "uint256"
        }
      ],
      "name": "deployToken",
      "outputs": [],
      "stateMutability": "nonpayable",
      "type": "function"
    },
    {
      "inputs": [
        {
          "internalType": "bytes32",
          "name": "role",
          "type": "bytes32"
        }
      ],
      "name": "getRoleAdmin",
      "outputs": [
        {
          "internalType": "bytes32",
          "name": "",
          "type": "bytes32"
        }
      ],
      "stateMutability": "view",
      "type": "function"
    },
    {
      "inputs": [
        {
          "internalType": "bytes32",
          "name": "role",
          "type": "bytes32"
        },
        {
          "internalType": "address",
          "name": "account",
          "type": "address"
        }
      ],
      "name": "grantRole",
      "outputs": [],
      "stateMutability": "nonpayable",
      "type": "function"
    },
    {
      "inputs": [
        {
          "internalType": "bytes32",
          "name": "role",
          "type": "bytes32"
        },
        {
          "internalType": "address",
          "name": "account",
          "type": "address"
        }
      ],
      "name": "hasRole",
      "outputs": [
        {
          "internalType": "bool",
          "name": "",
          "type": "bool"
        }
      ],
      "stateMutability": "view",
      "type": "function"
    },
    {
      "inputs": [
        {
          "internalType": "bytes32",
          "name": "role",
          "type": "bytes32"
        },
        {
          "internalType": "address",
          "name": "callerConfirmation",
          "type": "address"
        }
      ],
      "name": "renounceRole",
      "outputs": [],
      "stateMutability": "nonpayable",
      "type": "function"
    },
    {
      "inputs": [
        {
          "internalType": "bytes32",
          "name": "role",
          "type": "bytes32"
        },
        {
          "internalType": "address",
          "name": "account",
          "type": "address"
        }
      ],
      "name": "revokeRole",
      "outputs": [],
      "stateMutability": "nonpayable",
      "type": "function"
    },
    {
      "inputs": [
        {
          "internalType": "bytes4",
          "name": "interfaceId",
          "type": "bytes4"
        }
      ],
      "name": "supportsInterface",
      "outputs": [
        {
          "internalType": "bool",
          "name": "",
          "type": "bool"
        }
      ],
      "stateMutability": "view",
      "type": "function"
    }
  ],
  "bytecode": "0x60a060405234801561001057600080fd5b5060405161147938038061147983398101604081905261002f9161016b565b6000818360405161003f90610142565b6001600160a01b03928316815291166020820152604001604051809103906000f080158015610072573d6000803e3d6000fd5b506001600160a01b038116608052905061008d600084610096565b5050505061019e565b6000828152602081815260408083206001600160a01b038516845290915281205460ff16610138576000838152602081815260408083206001600160a01b03861684529091529020805460ff191660011790556100f03390565b6001600160a01b0316826001600160a01b0316847f2f8788117e7eff1d82e926ec794901d17c78024a50270940304540a733656f0d60405160405180910390a450600161013c565b5060005b92915050565b6104ad80610fcc83390190565b80516001600160a01b038116811461016657600080fd5b919050565b6000806040838503121561017e57600080fd5b6101878361014f565b91506101956020840161014f565b90509250929050565b608051610e0c6101c060003960008181610141015261026a0152610e0c6000f3fe608060405234801561001057600080fd5b50600436106100a35760003560e01c806336568abe1161007657806391d148541161005b57806391d148541461017b578063a217fddf146101b2578063d547741f146101ba57600080fd5b806336568abe146101295780637e2ec6d01461013c57600080fd5b806301ffc9a7146100a857806315d39ec3146100d0578063248a9ca3146100e55780632f2ff15d14610116575b600080fd5b6100bb6100b63660046105f7565b6101cd565b60405190151581526020015b60405180910390f35b6100e36100de3660046106a5565b610266565b005b6101086100f3366004610733565b60009081526020819052604090206001015490565b6040519081526020016100c7565b6100e361012436600461074c565b61039b565b6100e361013736600461074c565b6103c6565b6101637f000000000000000000000000000000000000000000000000000000000000000081565b6040516001600160a01b0390911681526020016100c7565b6100bb61018936600461074c565b6000918252602082815260408084206001600160a01b0393909316845291905290205460ff1690565b610108600081565b6100e36101c836600461074c565b610417565b60007fffffffff0000000000000000000000000000000000000000000000000000000082167f7965db0b00000000000000000000000000000000000000000000000000000000148061026057507f01ffc9a7000000000000000000000000000000000000000000000000000000007fffffffff000000000000000000000000000000000000000000000000000000008316145b92915050565b60007f0000000000000000000000000000000000000000000000000000000000000000604051610295906105ea565b6001600160a01b039091168152604060208201819052600090820152606001604051809103906000f0801580156102d0573d6000803e3d6000fd5b506040517f4d12d4b60000000000000000000000000000000000000000000000000000000081529091506001600160a01b03821690634d12d4b690610323908a908a908a908a908a908a906004016107a1565b600060405180830381600087803b15801561033d57600080fd5b505af1158015610351573d6000803e3d6000fd5b50506040516001600160a01b03841681527f2e2b3f61b70d2d131b2a807371103cc98d51adcaa5e9a8f9c32658ad8426e74e9250602001905060405180910390a150505050505050565b6000828152602081905260409020600101546103b68161043c565b6103c08383610449565b50505050565b6001600160a01b0381163314610408576040517f6697b23200000000000000000000000000000000000000000000000000000000815260040160405180910390fd5b61041282826104f3565b505050565b6000828152602081905260409020600101546104328161043c565b6103c083836104f3565b6104468133610576565b50565b6000828152602081815260408083206001600160a01b038516845290915281205460ff166104eb576000838152602081815260408083206001600160a01b03861684529091529020805460ff191660011790556104a33390565b6001600160a01b0316826001600160a01b0316847f2f8788117e7eff1d82e926ec794901d17c78024a50270940304540a733656f0d60405160405180910390a4506001610260565b506000610260565b6000828152602081815260408083206001600160a01b038516845290915281205460ff16156104eb576000838152602081815260408083206001600160a01b0386168085529252808320805460ff1916905551339286917ff6391f5c32d9c69d2a47ea670b442974b53935d1edc7fd64eb21e047a839171b9190a4506001610260565b6000828152602081815260408083206001600160a01b038516845290915290205460ff166105e6576040517fe2517d3f0000000000000000000000000000000000000000000000000000000081526001600160a01b03821660048201526024810183905260440160405180910390fd5b5050565b6105eb806107ec83390190565b60006020828403121561060957600080fd5b81357fffffffff000000000000000000000000000000000000000000000000000000008116811461063957600080fd5b9392505050565b80356001600160a01b038116811461065757600080fd5b919050565b60008083601f84011261066e57600080fd5b50813567ffffffffffffffff81111561068657600080fd5b60208301915083602082850101111561069e57600080fd5b9250929050565b600080600080600080608087890312156106be57600080fd5b6106c787610640565b9550602087013567ffffffffffffffff8111156106e357600080fd5b6106ef89828a0161065c565b909650945050604087013567ffffffffffffffff81111561070f57600080fd5b61071b89828a0161065c565b979a9699509497949695606090950135949350505050565b60006020828403121561074557600080fd5b5035919050565b6000806040838503121561075f57600080fd5b8235915061076f60208401610640565b90509250929050565b81835281816020850137506000828201602090810191909152601f909101601f19169091010190565b6001600160a01b03871681526080602082015260006107c4608083018789610778565b82810360408401526107d7818688610778565b91505082606083015297965050505050505056fe60a06040526040516105eb3803806105eb83398101604081905261002291610387565b61002c828261003e565b506001600160a01b0316608052610484565b610047826100fe565b6040516001600160a01b038316907f1cf3b03a6cf19fa2baba4df148e9dcabedea7f8a5c07840e207e5c089be95d3e90600090a28051156100f2576100ed826001600160a01b0316635c60da1b6040518163ffffffff1660e01b8152600401602060405180830381865afa1580156100c3573d6000803e3d6000fd5b505050506040513d601f19601f820116820180604052508101906100e7919061044d565b82610211565b505050565b6100fa610288565b5050565b806001600160a01b03163b60000361013957604051631933b43b60e21b81526001600160a01b03821660048201526024015b60405180910390fd5b807fa3f0ad74e5423aebfd80d3ef4346578335a9a72aeaee59ff6cb3582b35133d5080546001600160a01b0319166001600160a01b0392831617905560408051635c60da1b60e01b81529051600092841691635c60da1b9160048083019260209291908290030181865afa1580156101b5573d6000803e3d6000fd5b505050506040513d601f19601f820116820180604052508101906101d9919061044d565b9050806001600160a01b03163b6000036100fa57604051634c9c8ce360e01b81526001600160a01b0382166004820152602401610130565b6060600080846001600160a01b03168460405161022e9190610468565b600060405180830381855af49150503d8060008114610269576040519150601f19603f3d011682016040523d82523d6000602084013e61026e565b606091505b50909250905061027f8583836102a9565b95945050505050565b34156102a75760405163b398979f60e01b815260040160405180910390fd5b565b6060826102be576102b982610308565b610301565b81511580156102d557506001600160a01b0384163b155b156102fe57604051639996b31560e01b81526001600160a01b0385166004820152602401610130565b50805b9392505050565b8051156103185780518082602001fd5b60405163d6bda27560e01b815260040160405180910390fd5b80516001600160a01b038116811461034857600080fd5b919050565b634e487b7160e01b600052604160045260246000fd5b60005b8381101561037e578181015183820152602001610366565b50506000910152565b6000806040838503121561039a57600080fd5b6103a383610331565b60208401519092506001600160401b038111156103bf57600080fd5b8301601f810185136103d057600080fd5b80516001600160401b038111156103e9576103e961034d565b604051601f8201601f19908116603f011681016001600160401b03811182821017156104175761041761034d565b60405281815282820160200187101561042f57600080fd5b610440826020830160208601610363565b8093505050509250929050565b60006020828403121561045f57600080fd5b61030182610331565b6000825161047a818460208701610363565b9190910192915050565b60805161014d61049e60003960006024015261014d6000f3fe608060405261000c61000e565b005b61001e610019610020565b6100b6565b565b60007f000000000000000000000000000000000000000000000000000000000000000073ffffffffffffffffffffffffffffffffffffffff16635c60da1b6040518163ffffffff1660e01b8152600401602060405180830381865afa15801561008d573d6000803e3d6000fd5b505050506040513d601f19601f820116820180604052508101906100b191906100da565b905090565b3660008037600080366000845af43d6000803e8080156100d5573d6000f35b3d6000fd5b6000602082840312156100ec57600080fd5b815173ffffffffffffffffffffffffffffffffffffffff8116811461011057600080fd5b939250505056fea26469706673582212201d79035ab991b1ac229bbe9b6c7fb90cdc576a1703c7ab9aee35e371b3180d3664736f6c634300081c0033a264697066735822122072a67338a2e0ea01a3791f84cf2a50c5f5f28cf45c7c4a32c8a56e5e1396d6f164736f6c634300081c0033608060405234801561001057600080fd5b506040516104ad3803806104ad83398101604081905261002f91610165565b806001600160a01b03811661005f57604051631e4fbdf760e01b8152600060048201526024015b60405180910390fd5b61006881610079565b50610072826100c9565b5050610198565b600080546001600160a01b038381166001600160a01b0319831681178455604051919092169283917f8be0079c531659141344cd1fd0a4f28419497f9722a3daafe3b4186f6b6457e09190a35050565b806001600160a01b03163b6000036100ff5760405163211eb15960e21b81526001600160a01b0382166004820152602401610056565b600180546001600160a01b0319166001600160a01b0383169081179091556040517fbc7cd75a20ee27fd9adebab32041f755214dbc6bffa90cc0225b39da2e5c2d3b90600090a250565b80516001600160a01b038116811461016057600080fd5b919050565b6000806040838503121561017857600080fd5b61018183610149565b915061018f60208401610149565b90509250929050565b610306806101a76000396000f3fe608060405234801561001057600080fd5b50600436106100675760003560e01c8063715018a611610050578063715018a6146100aa5780638da5cb5b146100b2578063f2fde38b146100c357600080fd5b80633659cfe61461006c5780635c60da1b14610081575b600080fd5b61007f61007a3660046102a0565b6100d6565b005b6001546001600160a01b03165b6040516001600160a01b03909116815260200160405180910390f35b61007f6100ea565b6000546001600160a01b031661008e565b61007f6100d13660046102a0565b6100fe565b6100de610157565b6100e78161019d565b50565b6100f2610157565b6100fc6000610243565b565b610106610157565b6001600160a01b03811661014e576040517f1e4fbdf7000000000000000000000000000000000000000000000000000000008152600060048201526024015b60405180910390fd5b6100e781610243565b6000546001600160a01b031633146100fc576040517f118cdaa7000000000000000000000000000000000000000000000000000000008152336004820152602401610145565b806001600160a01b03163b6000036101ec576040517f847ac5640000000000000000000000000000000000000000000000000000000081526001600160a01b0382166004820152602401610145565b6001805473ffffffffffffffffffffffffffffffffffffffff19166001600160a01b0383169081179091556040517fbc7cd75a20ee27fd9adebab32041f755214dbc6bffa90cc0225b39da2e5c2d3b90600090a250565b600080546001600160a01b0383811673ffffffffffffffffffffffffffffffffffffffff19831681178455604051919092169283917f8be0079c531659141344cd1fd0a4f28419497f9722a3daafe3b4186f6b6457e09190a35050565b6000602082840312156102b257600080fd5b81356001600160a01b03811681146102c957600080fd5b939250505056fea2646970667358221220d198e34675d53cdd205e4c6d8683e81289f619ae4a50ff3f13f11a1846c8269564736f6c634300081c0033",
  "linkReferences": {},
  "deployedLinkReferences": {}
}